:101E000011248FE594E09EBF8DBF84B714BE81FF7F
:101E1000EFD085E08EBD82E08BB988E18AB996E883
:101E200090BD97E699B981BD8EE081BDBD9A86E0EF
:101E300048E15EEF34E020E25DBD4CBD38BF08B63E
:101E400002FEFDCF98B3922798BBA8958150A1F7C9
:101E5000D0E0C0E098E1E92E28E0D22ECC24C39453
:101E600035E0932E41E1842E53E0F52EA5D0813448
:101E700081F4A2D0182FA7D0123819F484E098D09A
:101E800094C0113819F484E093D08FC083E090D0CF
:101E90008CC0823419F484E1A0D087C0853419F451
:101EA00085E09BD082C0853549F486D0C82FD0E02C
:101EB00083D0D82BCC0FDD1F86D077C0863529F490
:101EC00084E08BD080E074D070C0843609F045C0C7
:101ED00073D072D0782E70D000E011E0C11588E187
:101EE000D80730F4FE01F7BEE89500E011E000C02D
:101EF0005801FFEFAF1ABF0A5FD0F8018083850158
:101F00007A10F6CFC115F8E1DF0718F0FE01F7BE31
:101F1000E89559D007B600FCFDCFFE01A0E0B1E086
:101F200001C0D9019C919D012E5F3F4F11968C916C
:101F300011978927982789270C01C7BEE895112496
:101F40003296AE33B14069F7FE0197BEE89507B609
:101F500000FCFDCF87BEE89528C08437A9F42CD0BB
:101F60002BD0B82E29D02FD0AB2CFE018F010F5FC4
:101F70001F4F84911DD0AA94F801A110F7CF21968C
:101F8000BA94CB0DD11D11C0853741F41CD08EE120
:101F90000FD083E90DD087E00BD007C0813521F445
:101FA000E1BCD1BC10D001C00ED080E101D05ECF29
:101FB0005D9BFECF8CB908955F9BFECF5C9901C0FD
:101FC000A8958CB10895F8DF803229F088E181BDB1
:101FD00088E081BDFFCF84E1EBCFCF93C82FECDF4A
:101FE000C150E9F7CF91EFCF98E191BD81BD089540
:0C1FF00088E181BD11BCEE27FF27099499
:021FFE000404D9
:0400000300001E00DB
:00000001FF
